S01700004763634170706C69636174696F6E312E737265635B
S113000067C06EC06DC06CC06BC06AC069C068C098
S113001067C066C065C064C063C062C061C060C0C0
S11300205FC01FC219C221C220C21FC21EC21DC28C
S11300301CC21BC21AC219C218C250C154C158C131
S11300405CC160C164C168C16CC170C174C1FAC1D2
S11300500CC20BC2FCC109C208C207C2BDC0C1C0E8
S1130060C5C0C9C0CDC0D1C0D5C0D9C0DDC0E1C0F4
S1130070E5C0E9C0EDC0F1C0F5C0F9C0FDC001C1E3
S113008005C109C10DC111C115C119C11DC121C1CC
S1130090ECC1EBC1EAC1E9C1E8C1E7C151C155C135
S11300A059C15DC161C165C169C16DC171C175C10C
S11300B079C17DC181C185C189C18DC191C195C1FC
S11300C099C19DC1A1C1A5C1A9C1ADC1B1C1B5C1EC
S11300D011241FBECFE5D2E0DEBFCDBF5FD21FC368
S11300E08FCFDA9A85E08A95F1F70000DA980895BF
S11300F0CF93DF939FEF9ABB1BBA982F907F20E199
S1130100829FE00111246115710569F49BBBE9DF4D
S11301108AE68A95F1F700C0CBBBE3DF8AE68A95CD
S1130120F1F700C011C06130710571F491609BBB9F
S1130130D8DF2AE62A95F1F700C0C160CBBBD1DF36
S11301408AE68A95F1F700C0DF91CF9108952FE7F1
S113015088E391E0215080409040E1F700C0000026
S11301608FEF8ABB1BBA80E28BBBBBDF87EC90E0CE
S11301700197F1F700C0000060E070E08CE2B8DFA6
S113018095E89A95F1F7000060E070E08FE0B0DF49
S113019025E82A95F1F7000060E070E081E0A8DF2F
S11301A085E88A95F1F7000060E070E086E0A0DF62
S11301B095E89A95F1F70000089560E070E081E019
S11301C097DF089590E0FC01B497E735F10508F056
S11301D04CC1EF5EFF4F099461E070E081E488DF79
S11301E0089561E070E082E483DF089561E070E0E7
S11301F083E47EDF089561E070E084E479DF0895AC
S113020061E070E085E474DF089561E070E086E405
S11302106FDF089561E070E087E46ADF089561E0CC
S113022070E088E465DF089561E070E089E460DFF0
S1130230089561E070E08AE45BDF089561E070E0B6
S11302408BE456DF089561E070E08CE451DF08959B
S113025061E070E08DE44CDF089561E070E08EE4CD
S113026047DF089561E070E08FE442DF089561E0C4
S113027070E080E53DDF089561E070E081E538DFFE
S1130280089561E070E082E533DF089561E070E095
S113029083E52EDF089561E070E084E529DF0895A9
S11302A061E070E085E524DF089561E070E086E5B3
S11302B01FDF089561E070E087E51ADF089561E0CB
S11302C070E088E515DF089561E070E089E510DFEE
S11302D0089561E070E08AE50BDF089561E070E065
S11302E080E306DF089561E070E081E301DF0895B3
S11302F061E070E082E3FCDE089561E070E083E396
S1130300F7DE089561E070E084E3F2DE089561E0D1
S113031070E085E3EDDE089561E070E086E3E8DEF9
S1130320089561E070E087E3E3DE089561E070E042
S113033088E3DEDE089561E070E089E3D9DE0895A4
S113034061E070E081E6D4DE089561E070E082E669
S1130350CFDE089561E070E083E6CADE089561E0CF
S113036070E084E6C5DE089561E070E085E6C0DEF5
S1130370089561E070E086E6BBDE089561E070E018
S113038087E6B6DE089561E070E088E6B1DE0895A0
S113039061E070E089E6ACDE089561E070E08AE631
S11303A0A7DE089561E070E08BE6A2DE089561E0C7
S11303B070E08CE69DDE089561E070E08DE698DEE5
S11303C0089561E070E08EE693DE089561E070E0E8
S11303D08FE68EDE089561E070E080E789DE08959F
S11303E061E070E081E784DE089561E070E082E717
S11303F07FDE089561E070E083E77ADE089561E0CE
S113040070E084E775DE089561E070E085E770DEF2
S1130410089561E070E086E76BDE089561E070E0C6
S113042087E766DE089561E070E088E761DE08959D
S113043061E070E089E75CDE089561E070E08AE7DE
S113044057DE089561E070E08AE352DE089561E0CA
S113045070E08DE34DDE089561E070E085E248DEF2
S1130460089561E070E084E243DE08950F931F93E2
S1130470CF93DF939C01EAE0F0E0BF0129D1EC01C6
S1130480A901481B590BCA01BF0122D18B0160E0AD
S113049070E080E82DDE0130110519F481E392DE6D
S11304A00CC00230110519F482E38CDE0CC0033059
S11304B0110519F483E386DE0CC00430110519F428
S11304C084E380DE0CC00530110519F485E37ADE7F
S11304D00CC00630110519F486E374DE0CC0073035
S11304E0110519F487E36EDE0CC00830110519F408
S11304F088E368DE0AC00930110519F489E362DE75
S113050004C0012B11F480E35DDE60E070E081E85B
S1130510EFDDC130D10519F481E354DE0CC0C230E3
S1130520D10519F482E34EDE0CC0C330D10519F4B1
S113053083E348DE0CC0C430D10519F484E342DE01
S11305400CC0C530D10519F485E33CDE0CC0C630BF
S1130550D10519F486E336DE0CC0C730D10519F491
S113056087E330DE0CC0C830D10519F488E32ADEF5
S11305700AC0C930D10519F489E324DE04C0CD2BA7
S113058011F480E31FDE8FE39CE90197F1F700C0CB
S11305900000DF91CF911F910F9108952FEF89E60D
S11305A098E1215080409040E1F700C0000017BA64
S11305B08FEF8ABB16B3CBDD60E070E08CE098DD92
S11305C025E82A95F1F70000F8DDC2E3D0E004E065
S11305D086B3811104C081E090E048DF14C086B383
S11305E0813021F482E090E041DF0DC086B3853094
S11305F021F483E090E03ADF06C086B3843019F436
S113060084E090E033DF11110DC086B3813009F02E
S11306105BC0D3DD219686B3843031F4CEDD2197DF
S1130620102F1EC0113059F486B3853011F4C5DD86
S1130630219686B3811120C0C0DD21971DC01530DD
S113064079F486B3843031F4B8DD219686B38130F1
S113065049F403C086B3813079F4AFDD21970CC02F
S1130660143051F486B3811102C0A7DD219686B3FC
S1130670853011F4A2DD219786B3883049F086B322
S1130680893031F086B38D3019F086B38C3061F443
S113069060E070E081EC2CDD80E494DD8FE39CE984
S11306A00197F1F700C0000016B3CE01DFDEC436B7
S11306B0D10524F4CE01DADE21968ACF80E090E0E1
S11306C0D5DEC0E0D0E084CF86B3843049F6A6CF2F
S11306D097FB072E16F4009406D077FD08D00BD0B4
S11306E007FC05D03EF4909581959F4F0895709531
S11306F061957F4F0895AA1BBB1B51E107C0AA1F38
S1130700BB1FA617B70710F0A61BB70B881F991FAE
S11307105A95A9F780959095BC01CD010895F89458
S1050720FFCF05
S9030000FC
