S01700004763634170706C69636174696F6E312E737265635B
S113000010C017C016C015C014C013C012C011C050
S113001010C00FC00EC00DC00CC00BC00AC009C078
S113002008C011241FBECFE5D2E0DEBFCDBF73D020
S113003017C1E6CFDA9A85E08A95F1F70000DA98DD
S11300400895CF93DF939FEF9ABB1BBA982F907FAD
S113005020E1829FE00111246115710569F49BBBC5
S1130060E9DF8AE68A95F1F700C0CBBBE3DF8AE6D5
S11300708A95F1F700C011C06130710571F4916087
S11300809BBBD8DF2AE62A95F1F700C0C160CBBB41
S1130090D1DF8AE68A95F1F700C0DF91CF91089508
S11300A02FE788E391E0215080409040E1F700C0C1
S11300B000008FEF8ABB1BBA80E28BBBBBDF87ECEF
S11300C090E00197F1F700C0000060E070E08CE27E
S11300D0B8DF95E89A95F1F7000060E070E08FE0F2
S11300E0B0DF25E82A95F1F7000060E070E081E0D8
S11300F0A8DF85E88A95F1F7000060E070E086E00B
S1130100A0DF95E89A95F1F70000089560E070E0AB
S113011081E097DF089517BA8FEF8ABB86B3C0DFFB
S113012060E070E08CE08DDF85E88A95F1F70000EF
S1130130EDDF60E070E080E484DF61E070E08FEF89
S113014080DF61E070E08FEF7CDF61E070E08FEFD3
S113015078DF61E070E080EF74DF61E070E08FEFE2
S113016070DF61E070E08FEF6CDF61E070E08FEFD3
S113017068DF61E070E080E064DF61E070E080E00F
S113018060DF61E070E080E05CDF61E070E080E00F
S113019058DF61E070E080E054DF61E070E080E00F
S11301A050DF61E070E080E04CDF61E070E084E00B
S11301B048DF61E070E08FEF44DF61E070E08FEFD3
S11301C040DF61E070E08FEF3CDF61E070E08FEFD3
S11301D038DF61E070E080EF34DF61E070E08FEFE2
S11301E030DF61E070E08FEF2CDF61E070E080E1F0
S11301F028DF61E070E080E024DF61E070E085E00A
S113020020DF61E070E080E41CDF61E070E080E00A
S113021018DF61E070E080E014DF61E070E080E00E
S113022010DF61E070E084E00CDF8FE19EE4019771
S1130230F1F700C0000060E070E080E802DF61E0F8
S113024070E080E0FEDE61E070E081E0FADE61E013
S113025070E082E0F6DE61E070E083E0F2DEFFCF82
S1070260F894FFCF3C
S9030000FC
